:020000040000FA
:10000000200200200102000015020000170200007B
:10001000190200001902000019020000000000008F
:1000200000000000000000000000000019020000B5
:10003000190200000000000019020000190200006F
:100040001902000019020000190200001902000044
:100050001902000019020000190200001902000034
:100060001902000019020000190200001902000024
:100070001902000019020000190200001902000014
:100080001902000019020000190200001902000004
:1000900019020000190200001902000019020000F4
:1000A00019020000190200001902000019020000E4
:1000B00019020000190200001902000019020000D4
:1000C00019020000190200001902000019020000C4
:1000D00019020000190200001902000019020000B4
:1000E00019020000190200001902000019020000A4
:1000F0001902000019020000190200001902000094
:100100001902000019020000190200001902000083
:100110001902000019020000190200001902000073
:100120001902000019020000190200001902000063
:100130001902000019020000190200001902000053
:100140001902000019020000190200001902000043
:100150000000000000000000190200001902000069
:10016000190200001902000000000000190200003E
:100170001902000019020000190200001902000013
:100180001902000019020000190200001902000003
:1001900019020000190200001902000019020000F3
:1001A00019020000190200001902000019020000E3
:1001B00019020000190200001902000019020000D3
:1001C00019020000190200001902000019020000C3
:1001D00019020000190200001902000019020000B3
:1001E00019020000190200001902000019020000A3
:1001F0001902000019020000190200001902000093
:100200004EF68850CEF20000016841F470010160A2
:1002100000F004B8FEE7FEE7FEE70000DFF80CD0D0
:1002200000F00CF900480047D90A00002002002025
:100230002DE9FE4F81EA030404F0004421F000415F
:1002400000944FF0000B23F0004350EA01045ED00D
:1002500052EA03045BD0C3F30A54C1F30A552C4499
:10026000A4F2F3340194A0FB0254C1F3130141F44E
:100270008011C3F3130343F4801301FB024400FB1A
:10028000034E840A970A44EA815447EA8357A4FB41
:10029000076802958D0A05FB07854FEA932C04FB3E
:1002A0000C542705029D4FEA065847EA1637B5EB6E
:1002B00008056EEB070C870E920E47EA811742EA9B
:1002C0008312A7FB0201B6EB0B0164EB00042B0DBC
:1002D00043EA0C335E1844EB1C50DA465146E7FB08
:1002E0000201C5F313044FEA0B3343EA14534FEAF8
:1002F0000432019C43EA0603A4F10C040294009C1E
:10030000CDE900B400F04BF803B0BDE8F08F002059
:100310000146F9E70EB540F2334102910021CDE9E3
:1003200000110A460B4600F03AF803B000BDC1F3D5
:100330000A5210B5C1F3130140F2FF3341F48011AA
:100340009A4201DA002010BD40F233439A42A2F2F1
:10035000334203DC524200F003F810BD904010BD60
:10036000202A04DB203A21FA02F00021704721FA0A
:1003700002F3D040C2F12002914008431946704771
:1003800010B5141E73F1000408DA401C41F100019D
:1003900092185B411A4301D120F0010010BD2DE9F4
:1003A000F04D92469B4611B1B1FA81F202E0B0FAEB
:1003B00080F22032904600F053F804460F4640EA9F
:1003C0000A0041EA0B0153465A46084313D011462E
:1003D00053EA010019D0C8F140025046FFF7C0FFB0
:1003E00005460E4650465946424600F039F8084345
:1003F00005D0012004E020463946BDE8F08D0020FC
:10040000054346EAE0762C4337430A986305E40A3D
:10041000A0EB08000022FD0A44EA47540A3002D546
:1004200000200146E9E7010510196941DDE90845A9
:1004300000196941BDE8F04DA2E70000064C074DE8
:1004400006E0E06840F0010394E8070098471034A4
:10045000AC42F6D3FFF7E6FE480B0000680B000045
:10046000202A04DB203A00FA02F100207047914074
:10047000C2F1200320FA03F31943904070470000B3
:1004800010B50A4800F002FA00220321084800F0E3
:1004900065F80A2301220321054800F073F80321BF
:1004A000034800F00BF90349087010BD080800F07C
:1004B00000D00340000000202DE9F04105460E4623
:1004C0000321224800F0FAF807460EB1F8433070D5
:1004D0001F48007887EA00041E4800781E49097802
:1004E00048401C4908701C480078C0431A490870ED
:1004F00018480078204017490870174800782040B5
:10050000154908701348007809780843104909789C
:1005100008400F4908700F4801780F4800780143E0
:1005200027EA01000A49097808430949087009487F
:100530000078094909780843444005B12C70044803
:100540000078C043C0B2BDE8F081000000D0034095
:10055000000000200100002002000020D0F800343C
:1005600012F0010F14BF0B438B43C0F8003412F09C
:10057000020FD0F8202414BF114322EA0101C0F871
:10058000201470472DE9F00301264FF0000C0325DD
:10059000C2F3411706FA0CF40C4211D0D0F8C48F04
:1005A0004FEA4C0405FA04F928EA0908C0F8C48F98
:1005B000D0F8C48F07FA04F448EA0404C0F8C44F22
:1005C0000CF1010C0CF0FF0CBCF1080FE2D3D0F8D9
:1005D00000C512F0010F14BF4CEA010C2CEA010C0B
:1005E000C0F800C5D0F804C512F0020F14BF4CEAE1
:1005F000010C2CEA010CC0F804C5D0F808C512F0B3
:10060000040F14BF4CEA010C2CEA010CC0F808C519
:10061000D0F818C512F0080F14BF4CEA010C2CEAF0
:10062000010CC0F818C512F0100FD0F83C2514BF0B
:100630000A438A43C0F83C25D0F80C2513F0010F7B
:1006400014BF0A438A43C0F80C25D0F8102513F0D4
:10065000020F14BF0A438A43C0F81025D0F81425AE
:1006600013F0040F14BF0A438A43C0F81425D0F8CE
:100670001C2513F0080F14BF0A438A43C0F81C2539
:10068000D0F8442513F4007F14BF0A438A43C0F80E
:100690004425D0F8402513F4407F14BF0A438A4311
:1006A000C0F84025D0F82825002B0CBF114322EAC2
:1006B0000101C0F82815BDE8F003704750F821008B
:1006C000704730B50C46054608230122FFF75AFF54
:1006D00021462846BDE830400122FFF73FBF40F8E1
:1006E0002120704710B5002201210A48FFF7F7FFCB
:1006F000042000F0E8F9012211460648FFF7EFFF59
:10070000042000F0E0F9002201210248FFF7E7FF92
:1007100010BD00000070024010B5264800F0B6F889
:100720002448401C00F0B2F82248001D00F0AEF84A
:100730002048C01D00F0AAF801223C214FF04020C3
:10074000FFF70CFF012230211B48FFF707FF0122B2
:1007500007211A48FFF702FF01220F211848FFF76F
:10076000FDFE0A2301223C214FF04020FFF70AFF43
:100770000A23012230211048FFF704FF0A23012237
:1007800007210E48FFF7FEFE0A2301220F210C4825
:10079000FFF7F8FE00F032F800F016F80123094ADE
:1007A0000321184600F09CF842F2107000F01CF98A
:1007B00010BD0000000800F0005000400040024062
:1007C000007002400800002010B5002220210A48D5
:1007D000FFF785FF012000F076F920221146064838
:1007E000FFF77DFF1E2000F06EF900222021024855
:1007F000FFF775FF10BD00000050004010B500224B
:1008000010211F48FFF76BFF022211461D48FFF71A
:1008100066FF002204211B48FFF761FF002201212F
:100820001848FFF75CFF002204214FF04020FFF73B
:1008300056FF002208214FF04020FFF750FF002212
:1008400010214FF04020FFF74AFF002220214FF0F7
:100850004020FFF744FF002201210B48FFF73FFF34
:10086000002202210848FFF73AFF0022042106482F
:10087000FFF735FF002208210248FFF730FF10BDC7
:10088000005000400070024000400240C0F30723C7
:100890000749C0B2194401F07043C1F3130143EAA0
:1008A000411141EA800040F000700122026070476F
:1008B00000E60F40C0F307220849C0B2114401F01E
:1008C0007042C1F3130142EA411141EA800040F055
:1008D00000700068002818BF0120704700EA0F4030
:1008E0002DE9F05F06460F46904699464FF0000A04
:1008F000D34600250024B246002204213848FFF7E1
:10090000EEFE002202213648FFF7E9FE00BF21E09B
:10091000002204213248FFF7E2FE0AF0800080281E
:1009200005D1012211462F48FFF7D9FE04E000222D
:1009300001212C48FFF7D3FE042211462848FFF777
:10094000CEFE4FEA4A604FEA106A022000F0BBF880
:10095000601CC4B2082CDBDB002204212048FFF716
:10096000BEFE00252EE018F805B0002421E000228C
:1009700004211B48FFF7B3FE0BF08000802805D14F
:10098000012211461748FFF7AAFE04E000220121C8
:100990001448FFF7A4FE042211461148FFF79FFEFA
:1009A0004FEA4B604FEA106B022000F08CF8601C9D
:1009B000C4B2082CDBDB002204210948FFF78FFEBC
:1009C000681CC5B2BD42CEDBB9F1010F01D1FFF702
:1009D00089FE022211460248FFF781FEBDE8F09F22
:1009E0000070024000400240F0B52DED048B83B052
:1009F000074600200290019000264FF480562549BA
:100A00004E703012087041F263353846FFF782FCB1
:100A100041EC190B9FED200B53EC102BFFF708FC5A
:100A200041EC180BFFF783FC0446E0B28DF8070099
:100A3000200A8DF80600200C8DF80500200E8DF898
:100A40000400E8B28DF80A0028128DF8090000238E
:100A5000134A01211846FFF743FF012302AA03218D
:100A60000620FFF73DFF012301AA04210846FFF7F6
:100A700037FF00230B4A01211846FFF731FF0123FE
:100A8000044A02210520FFF72BFF03B0BDEC048BC5
:100A9000F0BD00001000002095D626E80B2E214066
:100AA000070000200600002002E008C8121F08C14D
:100AB000002AFAD170477047002001E001C1121FDF
:100AC000002AFBD1704700EB4001880000BF010005
:100AD000A0F10100FBD1704708B51948FFF7D6FE19
:100AE00000BF1748FFF7E6FE0028FAD0FFF7C8FC62
:100AF000FFF712FE01211348FFF7E3FD1FE000217D
:100B00006846FFF7D9FC04469DF8000000F001009C
:100B100040B104F0010028B1012211460948FFF755
:100B2000DEFD0CE09DF8000000F0020038B104F09A
:100B3000020020B1002201210248FFF7D0FDDEE7CC
:100B40000C0800F000400640680B00000000002088
:100B50001C000000A80A0000840B00001C000020FC
:100B600004020000B80A000003000010204080C00A
:100B7000D00000080000030000000000000000009A
:040B80000000000071
:040000050000021DD8
:00000001FF
