:020000040000FA
:10000000100200200102000015020000170200008B
:10001000190200001902000019020000000000008F
:1000200000000000000000000000000019020000B5
:10003000190200000000000019020000190200006F
:100040001902000019020000190200001902000044
:100050001902000019020000190200001902000034
:100060001902000019020000190200001902000024
:100070001902000019020000190200001902000014
:100080001902000019020000190200001902000004
:1000900019020000190200001902000019020000F4
:1000A00019020000190200001902000019020000E4
:1000B00019020000190200001902000019020000D4
:1000C00019020000190200001902000019020000C4
:1000D00019020000190200001902000019020000B4
:1000E00019020000190200001902000019020000A4
:1000F0001902000019020000190200001902000094
:100100001902000019020000190200001902000083
:100110001902000019020000190200001902000073
:100120001902000019020000190200001902000063
:100130001902000019020000190200001902000053
:100140001902000019020000190200001902000043
:100150000000000000000000190200001902000069
:10016000190200001902000000000000190200003E
:100170001902000019020000190200001902000013
:100180001902000019020000190200001902000003
:1001900019020000190200001902000019020000F3
:1001A00019020000190200001902000019020000E3
:1001B00019020000190200001902000019020000D3
:1001C00019020000190200001902000019020000C3
:1001D00019020000190200001902000019020000B3
:1001E00019020000190200001902000019020000A3
:1001F0001902000019020000190200001902000093
:100200004EF68850CEF20000016841F470010160A2
:1002100000F004B8FEE7FEE7FEE70000DFF80CD0D0
:1002200000F00AF800480047D90E00001002002034
:100230000138FDD170470000064C074D06E0E0682C
:1002400040F0010394E8070098471034AC42F6D31D
:10025000FFF7E8FF3C1400005C14000070B5044692
:10026000102C49DA00220421244800F0F0F902227F
:100270001146224800F0EBF9082211461F4800F011
:10028000E6F9002202211D4800F0E1F9012000F00A
:100290000EFE04F00F04002524E004F0080028B14D
:1002A00008221146154800F0D2F904E00022082186
:1002B000124800F0CCF9012000F0F9FD04221146AB
:1002C0000E4800F0C4F96006040E032000F0EFFDB4
:1002D00000220421094800F0BAF9012000F0E7FDEE
:1002E000681CC5B2042DD8DB02221146034800F079
:1002F000AEF9012000F0DBFD70BD0000006006409B
:1003000010B50A4800F0C2FB00BF084800F0E8FB47
:100310000028FAD00E21064800F07DF90A230122B8
:100320000E21034800F0B6F810BD00000E0800F0E2
:100330000060064010B50A4800F0A8FB0022032127
:10034000084800F093F80A2301220321054800F031
:10035000A1F80321034800F05BF90349087010BDC0
:10036000080800F000D00340000000202DE9F04113
:1003700005460E460321224800F04AF907460EB111
:10038000F84330701F48007887EA00041E48007860
:100390001E49097848401C4908701C480078C04331
:1003A0001A49087018480078204017490870174803
:1003B00000782040154908701348007809780843F0
:1003C0001049097808400F4908700F4801780F4814
:1003D0000078014327EA01000A49097808430949DE
:1003E000087009480078094909780843444005B174
:1003F0002C7004480078C043C0B2BDE8F081000012
:1004000000D0034000000020010000200200002076
:1004100010B50E4800F03AFB0D4800F037FB012004
:1004200000F0D4F840F2014000F0D0F803214FF082
:10043000402000F0FEF80521064800F06DFB064A5A
:100440004FF4E131002000F0ABFB10BD000800F0DC
:10045000001800F000C000400024F40002480168C9
:1004600041F040410160704734EF00E0D0F80034C3
:1004700012F0010F14BF0B438B43C0F8003412F08D
:10048000020FD0F8202414BF114322EA0101C0F862
:10049000201470472DE9F00301264FF0000C0325CE
:1004A000C2F3411706FA0CF40C4211D0D0F8C48FF5
:1004B0004FEA4C0405FA04F928EA0908C0F8C48F89
:1004C000D0F8C48F07FA04F448EA0404C0F8C44F13
:1004D0000CF1010C0CF0FF0CBCF1080FE2D3D0F8CA
:1004E00000C512F0010F14BF4CEA010C2CEA010CFC
:1004F000C0F800C5D0F804C512F0020F14BF4CEAD2
:10050000010C2CEA010CC0F804C5D0F808C512F0A3
:10051000040F14BF4CEA010C2CEA010CC0F808C50A
:10052000D0F818C512F0080F14BF4CEA010C2CEAE1
:10053000010CC0F818C512F0100FD0F83C2514BFFC
:100540000A438A43C0F83C25D0F80C2513F0010F6C
:1005500014BF0A438A43C0F80C25D0F8102513F0C5
:10056000020F14BF0A438A43C0F81025D0F814259F
:1005700013F0040F14BF0A438A43C0F81425D0F8BF
:100580001C2513F0080F14BF0A438A43C0F81C252A
:10059000D0F8442513F4007F14BF0A438A43C0F8FF
:1005A0004425D0F8402513F4407F14BF0A438A4302
:1005B000C0F84025D0F82825002B0CBF114322EAB3
:1005C0000101C0F82815BDE8F00370470E4AC0F3DA
:1005D0000741D26E01238B401A420C4A1ABF02EB2C
:1005E000C101496852F83110020AD1F82C354FF098
:1005F0000F0C0CFA02FC00F00F0023EA0C039040F1
:100600001843C1F82C05704700E00F40441100006A
:1006100050F82100704730B50C46054608230122EA
:10062000FFF738FF21462846BDE830400122FFF79A
:100630001DBF30B50C4605460222FFF717FF2146C5
:100640002846BDE8304008230122FFF723BF40F8C9
:10065000212070472DE9F003AD4D02462868AD4BCF
:100660001840A0F18053B3F5A02358D002F0380908
:10067000DFF8A482C2F38414B9F1100F24D0B9F1C9
:10068000300F04BF47F230504FF400130CD0382025
:10069000904304BF4FF40040C30105D012F0380F5F
:1006A0001CBF0020034613D09C4F12F4605F4FF034
:1006B000000618BF00222CD057F8324044457DD3A5
:1006C00007EBC2025268DFE0002340461524EBE747
:1006D000A4F10900122822D29148D5F87CC04FF02D
:1006E0004C7350F824002CF01C0C072CA8BF4CF0C5
:1006F000100CC5F87CC02E6D4FF4002C16F4807FD2
:10070000D2D1BCF1010C0AD02E6D16F4807FF8D046
:10071000CAE712F0380F18BFB9F1100F03D0BDE8C7
:10072000F00300207047C2F30268DFF8F8C100222E
:1007300057F83290E14503D307EBC202526803E059
:10074000521C062AF4D33246C5F8C020D5F8B02092
:10075000DFF8D4C102EA0C0242F00042C5F8B02032
:10076000DFF8C8C1A4F109024C1E5CF828C0A444FB
:10077000BCFBF1FCD5F8B0101943C5F8B01008EB7C
:10078000C80101EB41046A4902EB420201EBC401DA
:1007900001EB82046468C5F86441D5F864416FF0E8
:1007A000FF0808EB0C2C44EA0C0CC5F864C151F8A6
:1007B0002210D5F8602102F4000200E05FE011434E
:1007C000C5F86011D5F86011D5F86021C1F3892111
:1007D000C2F30904D5F86421C2F3042202F1010C2A
:1007E000D5F8642102F01F02521CB0FBF2F04A0956
:1007F000C2F100084443424301EB481104EB52129A
:10080000484302EB9020B0FBFCF041080846002270
:1008100057F832C0844503D307EBC200466802E0B4
:10082000521C062AF4D3C5F8C060D5F8600110F454
:10083000000F1DBFD5F8B00040F08040C5F8B000F3
:10084000D5F8600104BF40F40000C5F860014FF422
:100850000040D5F8682112F0010F02D1401E002897
:10086000F7DC002808BF002148D0D5F8B0001843B5
:1008700040F0010040F01040C5F8B0003EE0521CCE
:10088000062AFFF419AF3246C5F8C020D5F860211A
:1008900022F40002C5F86021D5F8B020DFF894C03A
:1008A00002EA0C0242F00042C5F8B020002908BF5D
:1008B0004FF0000C0AD0B0FBF1FCBCF1000F18BFE8
:1008C000ACF1010C0CF10101B0FBF1F10846002282
:1008D00057F83240844203D307EBC200466802E077
:1008E000521C062AF4D3C5F8C060D5F8B00043EA1C
:1008F0008C22104340F00040C5F8B000D5F8B0009D
:1009000020F47000C5F8B000BDE8F0030846704759
:1009100000E00F400000FF700024F400F813000016
:10092000DC11000040787D0100FC0FE0D4110000D4
:1009300048120000FF0300EF70B44B4D2A6E296F80
:1009400011F0004F14BF01F0700002F030002028B9
:1009500008BF464818D005DC88B1102808BF4448B5
:1009600012D009E0302808BF47F230500CD0702870
:1009700008BF4FF4004007D070BC002070477C20B7
:100980003C4B00EA121018584FF0FF3311F0004FA3
:1009900002D011F4006F06D001F0004C02F40064A4
:1009A0005CEA040C36D1D5F860C1D5F8644104F096
:1009B0001F06C4F30424641C761C16FB04F46400B4
:1009C000B0FBF4F0CCF309044443CCF3892C00FBD6
:1009D0000CF0D5F810C004EB902042F480020CF427
:1009E000704CBCF5804F08BF234B13D009DCBCF51D
:1009F000005F08BF214B0DD0BCF5405F08BF204B06
:100A000008E0BCF5E04F08BF1E4B03D0BCF5104F0B
:100A100008BF1D4B12F4800F21D011F0004F19D0E8
:100A200011F0804F09D011F4006F0CD001F0004C90
:100A300002F400625CEA020205D0C1F3C551491C10
:100A4000B0FBF1F00BE04000C1F38651491CB0FB54
:100A5000F1F004E0C2F3C351491CB0FBF1F0834252
:100A600038BF184670BC704700E00F4000093D00D9
:100A70000024F400DC110000005A620200B4C40437
:100A800080F0FA0240787D01002D3101C0F3072388
:100A90000749C0B2194401F07043C1F3130143EA9E
:100AA000411141EA800040F000700122026070476D
:100AB00000E60F40C0F307220849C0B2114401F01C
:100AC0007042C1F3130142EA411141EA800040F053
:100AD00000700068002818BF0120704700E30F4035
:100AE000C0F307220849C0B2114401F07042C1F3BB
:100AF000130142EA411141EA800040F000700068B1
:100B0000002818BF0120704700EA0F40826912F0E8
:100B1000200FFBD101607047C0F8C81F7047D0F8A4
:100B200018C01CF0080FFAD1D0F82CC02CF0100C13
:100B3000C0F82CC0D0F830C02CF0010C2CF4407C54
:100B4000C0F830C0D0F830C0B1EB021F34BF4CF059
:100B5000200C2CF0200CC0F830C038BF5208C9005F
:100B6000B1FBF2F1491C49088A09426201F03F01D8
:100B70008162C36200218161C16A41F01001C162DA
:100B8000016B40F20132114301637047C16A41F0C9
:100B90001001C162016B40F20132114301637047E1
:100BA00070B504460D4616460E4951F82400FFF76D
:100BB00081FF00B970BD0C4850F824000B49086053
:100BC000084951F82400FFF761FF60232A463146A7
:100BD00006480068FFF7A3FF04480068FFF7D6FF48
:100BE00000BFE7E7A00F0000940F00000400002002
:100BF0000FB408B503A800900099029800F006F819
:100C00000020009001B05DF814FB00002DE9F34FC7
:100C100085B0064612E1002400E0641C305D252802
:100C200002D0305D0028F8D12146304600F016F998
:100C3000264430782528EDD1761C00254FF0200B76
:100C400000BF16F8011B382932D014DC33292AD012
:100C500008DC25296FD0302922D0312921D0322932
:100C60006AD11FE034291FD035291ED036291DD066
:100C70003729F5D11BE0692935D008DC392918D08E
:100C8000582972D0632922D06429E9D12AE0702939
:100C90006CD073293CD0752958D07829E0D163E015
:100CA00000BF00BF00BF00BF00BF00BF00BF00BF4C
:100CB00000BF16F8010C302801D105B9834605EBB9
:100CC0008500450016F8010C30380544B9E7069850
:100CD000006804900698001D0690012104A800F009
:100CE000BDF8AAE000BF0698006804900698001DB1
:100CF00006904FF000080498002805DA0498404256
:100D000004904FF0010901E04FF000090A2739E093
:100D1000069850F804AB0690002400E0641C1AF812
:100D200004000028FAD12146504600F097F8A54269
:100D30000BD92D1B05E076E07AE0012143A000F0FD
:100D40008DF82800A5F10105F7D176E00698006836
:100D500004900698001D06904FF000080A274FF0F7
:100D600000090FE001E001E000BF00BF0698006845
:100D700004900698001D06904FF0000810274FF0D1
:100D8000000900BF012401E07C436D1E04FB07F055
:100D90000499884205D804FB07F0B0FBF7F0A042A5
:100DA000F2D0B9F1000F00D06D1EB9F1000F0AD0DA
:100DB000BBF1300F07D12D22404608F101080DF894
:100DC00000204FF00009012D0BD9102D09D26D1E06
:100DD00005E0404608F101080DF800B06D1E002D39
:100DE000F7D1B9F1000F05D02D22404608F10108D6
:100DF0000DF8002010E00498B0FBF4F0B0FBF7F120
:100E000007FB1100124909680A5C404608F1010815
:100E10000DF80020B4FBF7F4002CECD141466846F5
:100E200000F01CF809E0701E012100F017F804E042
:100E3000052108A000F012F800BF00BF307800289C
:100E40007FF4E9AE07B0BDE8F08F0000200000009D
:100E5000900F00004552524F5200000070B50546F9
:100E60000E4600240DE0285D0A2804D10D21074814
:100E70000068FFF74BFE295D04480068FFF746FE57
:100E8000641CB442EFD3204670BD00000400002073
:100E900002E008C8121F08C1002AFAD17047704743
:100EA000002001E001C1121F002AFBD1704770B57C
:100EB000044600BFFFF740FD4FF47A71B0FBF1F03C
:100EC0000321B0FBF1F52846FFF7B2F92000A4F1A9
:100ED0000101CCB2EED170BD08B527492748FFF714
:100EE000B9FB2748FFF7D2FDFFF7B8FA00BF244847
:100EF000FFF7F6FD0028FAD0FFF71CFAFFF788FA93
:100F0000FFF7FEF901211F48FFF785FB1EA0FFF741
:100F10006FFE30E000216846FFF728FA05469DF88D
:100F2000000000F0010080B105F0010068B101226D
:100F300011461448FFF78BFB601CC4B20F2C00DD78
:100F400000242046FFF78AF915E09DF8000000F024
:100F5000020080B105F0020068B1002201210948B9
:100F6000FFF775FB601EC4B2012C01DA601CC4B22D
:100F70002046FFF773F9CDE7000E2707800600F142
:100F80000C0800F0004006405374617274210A009E
:100F90002814000000C0004000D0004000E00040E5
:100FA000001800F0011800F0021800F000400040A6
:100FB00010000000008005401000000000500040BC
:100FC000110000000090054011000000006000408A
:100FD0001200000000A00540120000000070004058
:100FE0001300000000B00540130000000040024064
:100FF0001400000000C00540140000000050024032
:101000002E00000000D005402E00000000600240CD
:101010002F00000000E005402F000000007002409B
:101020003000000000F005403000000000D0034018
:101030004600000000000640460000000010064088
:101040004700000000200640480000000030064035
:101050007F00000000400640800000000050064075
:1010600084000000006006408C000000004000404A
:1010700010000000008005401000000000500040FB
:1010800011000000009005401100000000600040C9
:101090001200000000A00540120000000070004097
:1010A0001300000000B005401300000000400240A3
:1010B0001400000000C00540140000000050024071
:1010C0002E00000000D005402E000000006002400D
:1010D0002F00000000E005402F00000000700240DB
:1010E0003000000000F005403000000000D0034058
:1010F00043000000000006404300000000100640CE
:10110000440000000020064045000000003006407A
:101110005800000000400640590000000050064002
:101120005C000000006006406400000000700640A3
:101130006C000000008006406D000000009006403A
:101140007F0000000040004000800540005000404B
:10115000009005400060004000A005400070004085
:1011600000B005400040024000C005400050024071
:1011700000D005400060024000E0054000700240E1
:1011800000F0054000D0034000000640001006407B
:1011900000100640002006400020064000300640B7
:1011A0000030064000400640004006400050064027
:1011B0000050064000600640006006400070064097
:1011C0000070064000800640008006400090064007
:1011D0000090064000688909001C4E0E40420F0036
:1011E00000201C0080841E0000802500999E36008F
:1011F0000040380000093D0000803E0000004B0028
:10120000404B4C0000204E00808D5B0000C05D0014
:101210000080700000127A0000007D008096980027
:10122000001BB7000080BB00C0E8CE00647ADA0083
:101230000024F4000000FA0080A81201002D310102
:1012400000366E0140787D01400000000000000083
:10125000000100003E000800000000000001000046
:10126000A000000002000000000100003454010052
:1012700000000000000100002B70060000000000CC
:101280000001000028000000000000000001000034
:101290002700010000000000000100002000000005
:1012A00000000000000100005000000002000000EB
:1012B000000100001AAC0000000000000001000066
:1012C00017940900000000000001000016980500B6
:1012D00000000000000100001400000000000000F9
:1012E0000001000013800800000000000001000061
:1012F000A000000008000000000100001000000035
:1013000000000000000100002800000002000000B2
:101310000001000040000000040000000001000087
:101320006000000000000000000100005D000C00F3
:10133000000000000001000050000000000000005C
:10134000000100004E00020000000000000100004B
:1013500041AC010000000000000100003C00000062
:1013600000000000000100003A80090000000000B9
:10137000000100003000000000000000000100003B
:10138000280000000000000000010000270001000C
:1013900000000000000100002360060000000000C3
:1013A00000010000216008000000000000010000B2
:1013B0001E00000000000000000100001DC004002D
:1013C00000000000000100005000000002000000CA
:1013D00000010000180000000000000000010000F3
:1013E0001400000000000000000100006000000088
:1013F00004000000000100000024F4003000300070
:10140000005A62029100910000879303D200D2003B
:1014100000B4C4041301130100E1F50554015401A3
:10142000000E2707950195013031323334353637B8
:101430003839616263646566000000005C14000076
:10144000000000200C000000900E00006814000056
:101450000C00002004020000A00E000003000000A9
:08146000000000000000000084
:040000050000021DD8
:00000001FF
