:020000040000FA
:1000000020A900206D020000810200008302000090
:10001000850200008502000085020000000000004B
:100020000000000000000000000000009D02000031
:100030008502000000000000F1020000C935000048
:100040008502000085020000850200008502000094
:100050008502000085020000850200008502000084
:100060008502000085020000850200008502000074
:100070008502000085020000850200008502000064
:100080008502000085020000850200008502000054
:100090008502000085020000850200008502000044
:1000A0008502000085020000850200008502000034
:1000B0008502000085020000850200008502000024
:1000C0008502000085020000850200008502000014
:1000D0008502000085020000850200008502000004
:1000E0008502000000000000000000008502000002
:1000F00085020000850200008502000085020000E4
:1001000085020000850200008502000085020000D3
:1001100000000000000000008502000085020000D1
:1001200085020000850200008502000085020000B3
:1001300085020000850200008502000085020000A3
:1001400000000000000000000000000000000000AF
:100150008502000085020000850200008502000083
:10016000000000000000000000000000000000008F
:10017000000000000000000000000000000000007F
:10018000000000000000000000000000000000006F
:10019000000000000000000000000000000000005F
:1001A000000000000000000000000000000000004F
:1001B0008502000085020000850200008502000023
:1001C0008502000085020000850200008502000013
:1001D0008502000085020000850200008502000003
:1001E000850200008502000085020000000000007A
:1001F000000000008502000085020000850200006A
:1002000085020000850200000000000000000000E0
:1002100085020000850200008502000085020000C2
:1002200085020000850200008502000085020000B2
:1002300085020000850200008502000085020000A2
:100240008502000085020000850200008502000092
:100250008502000085020000850200008502000082
:100260008502000085020000850200004EF68850DD
:10027000CEF20000016841F47001016000F004B8A2
:10028000FEE7FEE7FEE70000DFF80CD000F0DEFB43
:1002900000480047D12D000020A900202A4B1968F2
:1002A0000868B0E8F04F80F30988BFF36F8F4FF014
:1002B000000080F3118870470000000006480068C5
:1002C000006880F3088862B661B6BFF34F8FBFF352
:1002D0006F8F00DF00BF00BF08ED00E0DFF80C000B
:1002E000016841F470010160704700BF88ED00E0D3
:1002F000EFF30980BFF36F8F134B1A681EF0100FD6
:1003000008BF20ED108A20E9F04F106008B44FF0CC
:10031000C00080F31188BFF34F8FBFF36F8F03F0DE
:10032000B3F84FF0000080F3118808BC1968086822
:10033000B0E8F04F1EF0100F08BFB0EC108A80F349
:100340000988BFF36F8F70470C000020EFF3058022
:100350007047D2B201E000F8012B491EFBD2704772
:100360000022F6E710B513460A4604461946FFF781
:10037000F0FF204610BD2DE9FE4F804681EA0300C4
:10038000C00F0C46009021F0004123F00045B8EB6F
:100390000200A94105D24046214690461C460B4624
:1003A000024623F00040104347D0270DC7F30A0050
:1003B000C3F30A510290401A019040286BDAC3F34C
:1003C000130040F4801B0098924620B10023D2EB2A
:1003D000030A63EB0B0B01985946C0F140025046EB
:1003E00000F0EDF906460D4650465946019A00F0D8
:1003F00005FA10EB08006141002487EA115284EAF3
:10040000E7731A4340D0009A62B3019A012A4FEA77
:10041000075215DC001B61EB02014FF0004202EABB
:100420000752CDE90042001C41F5801132462B46AF
:1004300000F03CFA03B0BDE8F08F40462146F9E7F2
:10044000001B61EB0201001C41F5801300185B41A9
:100450002018A2F5001747EB030140EAD570B61942
:100460006D4111E06D084FEA360645EAC0754FEA66
:100470000752001B61EB0201001C41F58011490885
:100480004FEA30000019514132462B4603B0BDE817
:10049000F04F00F0FCB90098012240000023D0EB9F
:1004A000020263EBE073009821464FEAE074B8EB78
:1004B000000061EB0401E9E783F000435BE781F0B2
:1004C000004158E72DE9FE4F81EA030404F000449F
:1004D00021F0004100944FF0000B23F0004350EA5C
:1004E00001045ED052EA03045BD0C3F30A54C1F3A3
:1004F0000A552C44A4F2F3340194A0FB0254C1F336
:10050000130141F48011C3F3130343F4801301FB7F
:10051000024400FB034E840A970A44EA815447EAE6
:100520008357A4FB076802958D0A05FB07854FEAF0
:10053000932C04FB0C542705029D4FEA065847EA0A
:100540001637B5EB08056EEB070C870E920E47EADF
:10055000811742EA8312A7FB0201B6EB0B0164EBA1
:1005600000042B0D43EA0C335E1844EB1C50DA46B2
:100570005146E7FB0201C5F313044FEA0B3343EA8C
:1005800014534FEA0432019C43EA0603A4F10C041D
:100590000294009CCDE900B400F088F903B0BDE8F6
:1005A000F08F00200146F9E72DE9F04D81EA0304C0
:1005B00004F0004B21F0004514464FF0000A23F0F0
:1005C000004150EA050220D054EA01021DD0C5F3D3
:1005D0000A570246C5F31303C1F31300C1F30A56C9
:1005E00040F4801543F48013A7EB0608101BD64691
:1005F00008F2FD3873EB050002D308F1010801E0B1
:1006000092185B41B8F1000F03DA00200146BDE803
:10061000F08D00204FF48011064684460EE0171B33
:1006200073EB050705D3121B63EB050306434CEA86
:10063000010C49084FEA300092185B4150EA01076B
:10064000EDD152EA030012D082EA040083EA0501E8
:10065000084305D0101BAB4106D20122002306E05F
:1006600000224FF0004302E06FF0010253101AEB3A
:1006700006004CEB085110EB0A0041EB0B01BDE802
:10068000F04D00F004B90EB540F233410291002163
:10069000CDE900110A460B4600F008F903B000BD91
:1006A000C1F30A5210B5C1F3130140F2FF3341F414
:1006B00080119A4201DA002010BD40F233439A4281
:1006C000A2F2334203DC524200F088F810BD9040A1
:1006D00010BD00F0004230F000400AD0C10D01F51D
:1006E0006071C0F3160042EA0151C208400711438D
:1006F000704700200146704701F0004330B421F0FC
:10070000004150EA010206D00A0DA2F56072C1F361
:100710001301002A02DC30BC00207047440F44EA79
:10072000C104C100E01830BC00EBC25000F078B842
:1007300030B50B46014600202022012409E021FAB1
:1007400002F59D4205D303FA02F5491B04FA02F5AE
:100750002844151EA2F10102F1DC30BD2DE9F05F45
:100760000546002092469B46884606468146402420
:100770001BE0284641464746224600F02FF85346E4
:100780005A46C01A914110D311461846224600F02D
:1007900016F82D1A67EB01084F462246012000216A
:1007A00000F00DF817EB00094E41201EA4F10104E2
:1007B000DFDC484631462A464346BDE8F09F202A02
:1007C00004DB203A00FA02F1002070479140C2F1A8
:1007D000200320FA03F3194390407047202A04DBDA
:1007E000203A21FA02F00021704721FA02F3D040AA
:1007F000C2F120029140084319467047202A06DBC7
:10080000CB17203A41FA02F043EAE07306E041FADE
:1008100002F3D040C2F120029140084319467047CC
:100820000029A8BF7047401C490008BF20F0010004
:10083000704710B4B0FA80FC00FA0CF050EA0104E2
:1008400004BF10BC704749B1CCF1200421FA04F474
:1008500011FA0CF118BF012121430843A3EB0C014D
:10086000CB1D4FEA00614FEA102042BF002010BCB0
:10087000704700EBC35010440029A4BF10BC704760
:10088000401C490008BF20F0010010BC704710B5A3
:10089000141E73F1000408DA401C41F100019218A3
:1008A0005B411A4301D120F0010010BD2DE9F04D4C
:1008B00092469B4611B1B1FA81F202E0B0FA80F2A1
:1008C00020329046FFF77BFF04460F4640EA0A00BD
:1008D00041EA0B0153465A46084313D0114653EAE6
:1008E000010019D0C8F140025046FFF777FF0546D6
:1008F0000E46504659464246FFF761FF084305D071
:10090000012004E020463946BDE8F08D0020054373
:1009100046EAE0762C4337430A986305E40AA0EBE5
:1009200008000022FD0A44EA47540A3002D500209C
:100930000146E9E7010510196941DDE9084500199B
:100940006941BDE8F04DA2E72DE9F04D00231A46BC
:100950001B1A8A4103DB00200146BDE8F08DC1F37C
:100960000A52C1F3130141F480154FF0000BD10777
:1009700002D100186D41521E0027044640F2FF11BB
:10098000384601EB620A3E468046024600204FF49C
:100990008011FFF723FFC2197141BB1846EB01001C
:1009A000B4EB030C75EB000C04D3E41A65EB000503
:1009B00017460E46241908F101006D41804634287F
:1009C000E3DDF91946EB0600091BA84103D24FF0FD
:1009D000FF32134601E0002213461BEB070046EBF3
:1009E0000A51BDE8F04DFFF752BFC1F30A52C1F3FF
:1009F000130140F2FF3341F480119A4202DA0020E1
:100A00000146704740F233439A42A2F2334202DC7D
:100A10005242FFF7E3BEFFF7D2BE000030B5041E1E
:100A200071F1000404DB4FF00044404264EB01012B
:100A3000141E73F1000405DB1C464FF000435242C4
:100A400063EB0403994208BF904230BD064C074D4A
:100A500006E0E06840F0010394E80700984710348E
:100A6000AC42F6D3FFF714FC903D0000B03D00000F
:100A700008B5DFF8B890FF2599F80010022950D189
:100A8000032189F8001002F031FC2B461A4611466A
:100A900027A001F0E7FC2B461A46114628A001F0DA
:100AA000E1FC00242B462A46002129A0009501F0F4
:100AB000D9FC2B462A46002125A0009501F0D2FC46
:100AC000641CA4B2042CEDD30424DFF898806427BE
:100AD00058F82400FFF7D7FD41EC100B01F0D2FCD1
:100AE00051EC100BFFF7DCFDB0FBF7F106462B468F
:100AF0002A4617A0009501F0B5FCB6FBF7F12B468E
:100B00002A4613A0009501F0ADFC641CA4B2FE2C93
:100B1000DED32B461A46114613A001F0A3FC02F0C7
:100B200005FC642002F04EFCA6E700006C000020EB
:100B30007265665F73746F702563256325630000BB
:100B4000636C6520312C302563256325630000002C
:100B500061646420312C302C256425632563256372
:100B600000000000449000207265665F737461723B
:100B70002563256325630000094D4FF47A74012233
:100B80001146284601F014F8204602F01BFC002212
:100B90000121284601F00CF8204602F013FCEEE794
:100BA000004006402DED0C8B222684B0FF249FEDE3
:100BB000FEDADFF8F8A3DFF8F8B3DFEDFE9A9FED79
:100BC000FECAF7EE00CADFEDFD8A9FEDFDBADFED4C
:100BD000FDBAFD4801780129FBD100210170FB4DD0
:100BE000042005EBC002C11E11715AF8201045F80F
:100BF0003010401CC0B2FE28F3D3F5A001F050FA2B
:100C00000622A9460620C2F1FD080FE009EBC0014B
:100C100059F830308F68BB4206D94D68D1F80CC006
:100C2000C1E90235C1E9007C401CC0B28045EDDC61
:100C3000521CD2B2FE2AE5D35546EFA0F5E9FF12C9
:100C400001F02EFA686800EE100AB8EE400ADFEDF7
:100C5000EC0AA86841F2883160EE200A95ED000A9E
:100C600010F0FF054FEA1040B8EE400A00FB01F01B
:100C700080EE809A00EE100AB8EE400A20EE298A33
:100C800006D0012D07D0022D0CD0032D0FD010E07F
:100C900028EE288A0DE028EE280AF2EE040A80EEFB
:100CA000208A06E028EE280A80EE0B8A01E028EE72
:100CB0002B8A0027C84659F83700FFF7E4FC41ECBF
:100CC000100B01F0DFFB51EC100BFFF7E9FC48F8CB
:100CD0003700D0465AF82700FFF7D5FC41EC100B3F
:100CE00001F0D0FB51EC100BFFF7DAFC48F82700BD
:100CF0007F1CFFB2FE2FDDD3C24F00204B46C0F158
:100D0000F70207EBC00103EBC202401CD2E900C2AC
:100D1000C1E900C2C0B2B8460C28F0D333460094F3
:100D200001942A461946B8A0029401F09BFB19EEE3
:100D3000100AFFF7CEFC41EC100BCDE900640294E1
:100D400053EC102B3146B6A0039401F08BFBCDE998
:100D5000006402949FEDB8AB314653EC1A2BB8A057
:100D6000039401F07FFBCDE90064029453EC1A2B4D
:100D70003146B9A0039401F075FBCDE900640294FB
:100D800053EC1A2B3146BAA0039401F06BFBCDE96A
:100D90000064029453EC1A2B3146BBA0039401F07B
:100DA00061FBCDE90064029453EC1A2B3146BCA0E0
:100DB000039401F057FBCDE90064029453EC1A2B25
:100DC0003146BDA0039401F04DFBCDE900640294CF
:100DD00053EC1A2B3146BEA0039401F043FBCDE93E
:100DE0000064029453EC1A2B3146BFA0039401F027
:100DF00039FB0027C14609EBC70099F804100079B8
:100E0000884276D159F8370000EE100ABC48B8EE97
:100E1000400A20EE0C0A20EE290A80ED000A35B1C6
:100E2000012D07D0022D0ED0032D13D016E020EE99
:100E3000280A11E020EE280AF2EE040A80EE201AB9
:100E400080ED001A0AE020EE280AC0EE0B0AC0ED81
:100E5000000A03E020EE2B0A80ED000A19EE101ABA
:100E6000A84A91425CDA19EE101AA74A914224DB93
:100E700090ED000A10EE102A5A4502DDDFEDA30ABC
:100E80004AE010EE102A5A4507DA18EE101AA04A66
:100E9000914202DDDFED9F0A3EE010EE101A9E4AFD
:100EA00011449E4A914205D318EE101A9A4AD24331
:100EB000914235DADFED9A0A2EE019EE101A994ABE
:100EC0001144B1F5B80F2BD290ED000A10EE102AA4
:100ED0005A4502DDDFED940A1EE010EE102A5A4555
:100EE00008DA18EE101A8A4A914203DDDFED8F0A04
:100EF00012E02AE010EE101A874A1144874A914204
:100F000002D2DFED8B0A07E018EE101A824AD243B4
:100F1000914205DADFED870A20EE200A80ED000A13
:100F2000D0ED000AB2EE041A80EE810A10EE100A2B
:100F3000FFF7CFFB41EC100BCDE90064029453ECBA
:100F4000102B31467CA00394D1E36FF0040303EB34
:100F50004102904223DB052202EB410290421ED85F
:100F6000674890ED0A0AB5EEC00AF1EE10FA17D103
:100F7000C0ED0ACA59F8371000EE101AB8EE400A50
:100F800020EE0C0A20EE290A80ED010A35B1012D70
:100F900007D0022D06D0032D05D0F0E0D8E003E104
:100FA00089E1D8E0E0E0E6E00000000044900020A5
:100FB00000A08C450000003800409C458A1F174067
:100FC0000000C84275021A3B6D000020F494002016
:100FD0002D2D2D2D2D2D2D2D2D2D2D2D2D2D2D2D41
:100FE0002D2D2D2D2D2D2D2D2D2D2D2D2D2D2D2D31
:100FF0002D2D2D2D0A0000002564202025640A00D7
:1010000020BC3E4CA499002074352E7478743D2584
:10101000635825642563256325632563000000006C
:1010200074332E7478743D2563252E3366485A2513
:1010300063256325632563000000000000000000B5
:101040007431302E7478743D2563252E3266256305
:1010500025632563256300007431322E7478743D56
:101060002563252E326625632563256325630000ED
:101070007431342E7478743D2563252E32662563D1
:1010800025632563256300007431362E7478743D22
:101090002563252E326625632563256325630000BD
:1010A0007431382E7478743D2563252E326625639D
:1010B00025632563256300007432302E7478743DF7
:1010C0002563252E3266256325632563256300008D
:1010D0007432322E7478743D2563252E3266256372
:1010E00025632563256300007432342E7478743DC3
:1010F0002563252E3266256325632563256300005D
:1011000070000020000017430000A0429CC4803FF4
:1011100000C05A45D7A3803FFFBFE3BAFF7F3E0020
:101120004E62803F0000BCBDC1CA813F3789813F0C
:10113000E926813F60E5803F74382E7478743D2540
:1011400063252E33666D4125632563256325630082
:1011500020EE280A11E020EE280AF2EE040A80EEC2
:10116000201A80ED011A0AE020EE280AC0EE0B0AD0
:10117000C0ED010A03E020EE2B0A80ED010AD0ED5C
:10118000010AB2EE041A80EE810A10EE100AFFF78F
:10119000A0FA41EC100BCDE90064029453EC102B43
:1011A0003146FDA00394A2E201EB4102A2F1050841
:1011B00040454DDB02F10508404549D8FD4890ED1A
:1011C0000B0AB5EEC00AF1EE10FA74D1C0ED0BCAED
:1011D00059F8371000EE101AB8EE400A20EE0C0A4B
:1011E00020EE290A80ED020A35B1012D07D0022D2B
:1011F0000ED0032D13D016E020EE280A11E020EEC9
:10120000280AF2EE040A80EE201A80ED021A0AE0A3
:1012100020EE280AC0EE0B0AC0ED020A03E020EE21
:101220002B0A80ED020AD0ED020AB2EE041A80EE1B
:10123000810A10EE100AFFF74CFA41EC100BCDE9D1
:101240000064029453EC102B3146DBA003944EE271
:1012500003EB810398424FDB052303EB81039842A4
:101260004AD8D44890ED0C0AB5EEC00AF1EE10FA57
:10127000ABD1C0ED0CCA59F8371000EE101AB8EE19
:10128000400A20EE0C0A20EE290A80ED030A35B14F
:10129000012D07D0022D0FD0032D14D017E020EE22
:1012A000280A12E020EE280AF2EE040A80EE201A44
:1012B00080ED031A0BE0F9E020EE280AC0EE0B0ADD
:1012C000C0ED030A03E020EE2B0A80ED030AD0ED07
:1012D000030AB2EE041A80EE810A10EE100AFFF73C
:1012E000F8F941EC100BCDE90064029453EC102B9B
:1012F0003146B8A00394FAE101EB8103A3F105089C
:1013000040454CDB5B1D984249D8AA4890ED0D0A38
:10131000B5EEC00AF1EE10FAAAD1C0ED0DCA59F827
:10132000371000EE101AB8EE400A20EE0C0A20EE3C
:10133000290A80ED040A35B1012D07D0022D0ED007
:10134000032D13D016E020EE280A11E020EE280A23
:10135000F2EE040A80EE201A80ED041A0AE020EE74
:10136000280AC0EE0B0AC0ED040A03E020EE2B0AA7
:1013700080ED040AD0ED040AB2EE041A80EE810A70
:1013800010EE100AFFF7A5F941EC100BCDE900644F
:10139000029453EC102B314695A00394A7E16FF013
:1013A000050303EB420398424EDB062303EB4202A4
:1013B000904249D87F4890ED0E0AB5EEC00AF1EE92
:1013C00010FA73D1C0ED0ECA59F8371000EE101A9A
:1013D000B8EE400A20EE0C0A20EE290A80ED050A3C
:1013E00035B1012D07D0022D0ED0032D13D016E0FC
:1013F00020EE280A11E020EE280AF2EE040A80EE20
:10140000201A80ED051A0AE020EE280AC0EE0B0A29
:10141000C0ED050A03E020EE2B0A80ED050AD0EDB1
:10142000050AB2EE041A80EE810A10EE100AFFF7E8
:1014300050F941EC100BCDE90064029453EC102BF1
:10144000314672A0039452E1C1EBC102D31F98420E
:101450004DDBD21D90424AD8564890ED0F0AB5EEAA
:10146000C00AF1EE10FA21D1C0ED0FCA59F83710B9
:1014700000EE101AB8EE400A20EE0C0A20EE290AFF
:1014800080ED060A35B1012D07D0022D0FD0032DB6
:1014900014D017E020EE280A12E020EE280AF2EE1F
:1014A000040A80EE201A80ED061A0BE073E020EEAD
:1014B000280AC0EE0B0AC0ED060A03E020EE2B0A54
:1014C00080ED060AD0ED060AB2EE041A80EE810A1B
:1014D00010EE100AFFF7FDF841EC100BCDE90064A7
:1014E000029453EC102B31464FA00394FFE06FF0B1
:1014F000070202EBC10290424CDB082202EBC10260
:10150000904247D82B4890ED100AB5EEC00AF1EE94
:1015100010FA40D1C0ED10CA59F8371000EE101A79
:10152000B8EE400A20EE0C0A20EE290A80ED070AE8
:1015300035B1012D07D0022D0ED0032D13D016E0AA
:1015400020EE280A11E020EE280AF2EE040A80EECE
:10155000201A80ED071A0AE020EE280AC0EE0B0AD6
:10156000C0ED070A03E020EE2B0A80ED070AD0ED5C
:10157000070AB2EE041A80EE810A10EE100AFFF795
:10158000A8F841EC100BCDE90064029453EC102B49
:10159000314657E059E0ACE07431302E7478743D38
:1015A0002563252E33666D412563256325632563F9
:1015B00000000000700000207431322E7478743DF9
:1015C0002563252E33666D412563256325632563D9
:1015D000000000007431342E7478743D2563252E8C
:1015E00033666D4125632563256325630000000094
:1015F0007431362E7478743D2563252E33666D4123
:101600002563256325632563000000007431382EAF
:101610007478743D2563252E33666D4125632563FB
:1016200025632563000000007432302E7478743D09
:101630002563252E33666D41256325632563256368
:10164000000000007BA0039451E001EBC101A1F177
:10165000090290424DDB093188424AD87C4890ED1E
:10166000110AB5EEC00AF1EE10FA42D1C0ED11CA6E
:1016700059F8371000EE101AB8EE400A20EE0C0AA6
:1016800020EE290A80ED080A35B1012D07D0022D80
:101690000ED0032D13D016E020EE280A11E020EE24
:1016A000280AF2EE040A80EE201A80ED081A0AE0F9
:1016B00020EE280AC0EE0B0AC0ED080A03E020EE77
:1016C0002B0A80ED080AD0ED080AB2EE041A80EE6B
:1016D000810A10EE100AFEF7FCFF41EC100BCDE979
:1016E0000064029453EC102B31465AA0039400F08E
:1016F000B9FE7F1CFFB20C2FFFF47DAB19EE100A70
:101700005B49884253DA19EE100A5A49884221DBB4
:1017100018EE100A5849884202DD9FED580A44E04D
:1017200018EE100A564908445649884202D29FEDE5
:10173000560A3AE018EE100A5449084454498842BF
:1017400005D318EE100A5149C94388422FDA9FED9C
:10175000510A2AE019EE100A4F490844B0F5B80FB3
:1017600025D218EE100A4449884202DD9FED4B0A4B
:101770001BE018EE100A424908444249884202D24E
:101780009FED470A11E018EE100A4049084440490D
:10179000884202D29FED430A07E018EE100A3B4947
:1017A000C943884203DA9FED400A28EE008A2848A0
:1017B000DFED3E0A90ED000A20EE200AD0ED020A8D
:1017C000B4EEE00AF1EE10FA14DDF2EE040A88EE4F
:1017D000200A10EE100AFEF77CFF41EC100BCDE959
:1017E0000064029453EC102B314631A0039400F0B6
:1017F00039FE07E0324600942346114632A0019498
:1018000000F030FE124880ED09DA80ED0ADA80ED52
:101810000BDA80ED0CDA80ED0DDA80ED0EDA80ED7A
:101820000FDA80ED10DA80ED11DA642001F0CAFDE4
:10183000FFF7CFB97432322E7478743D2563252EAC
:1018400033666D4125632563256325630000000031
:10185000700000207432342E7478743D2563252E78
:1018600033666D4125632563256325630000000011
:10187000000017430000A04200A00C469CC4803F1B
:10188000FF3F25BAFFDF3100D7A3803FFFBF63BA18
:10189000FF7F3E004E62803F0000BCBD85EB813F74
:1018A000FCA9813FE926813F60E5803FCDCCCC3D5E
:1018B00074312E7478743D2563252E33666D412571
:1018C000632563256325630074312E7478743D2588
:1018D000632563256325632563000000DFF8B4A05A
:1018E000DFF8B4B000254FF4C867DFF8B0901022DD
:1018F0001146484600F05CF95646504600F04AFB57
:10190000F0B301F0F3FCB04600245E46404600F020
:1019100035FB3055641CA4B2BC42F7D30022102121
:10192000484600F045F9C146B04606E0304600F0B2
:1019300025FB08F80400641CA4B24E46484600F09B
:1019400029FB0028F2D1164B4246115CAB290ED17F
:1019500011184C78CD2C0AD151F8044D24BAC9780D
:1019600024F0FF040C436D1CADB243F82540401C2D
:1019700080B2B842E9D3002501F0D8FC012100E093
:1019800003E008484170022101704FF4FA7001F041
:1019900019FDAAE700E00040E07600200050024078
:1019A000449000206C0000201CB500210320CDE9EC
:1019B00000010B46802202A1054801F01BFE1CBD60
:1019C00046504741445241574C494E4500000000A3
:1019D000710A0000D0F8003412F0010F14BF0B435D
:1019E0008B43C0F8003412F0020FD0F8202414BF4B
:1019F000114322EA0101C0F8201470472DE9F003D9
:101A000001264FF0000C0325C2F3411706FA0CF42F
:101A10000C4211D0D0F8C48F4FEA4C0405FA04F9F7
:101A200028EA0908C0F8C48FD0F8C48F07FA04F474
:101A300048EA0404C0F8C44F0CF1010C0CF0FF0C90
:101A4000BCF1080FE2D3D0F800C512F0010F14BFAB
:101A50004CEA010C2CEA010CC0F800C5D0F804C512
:101A600012F0020F14BF4CEA010C2CEA010CC0F872
:101A700004C5D0F808C512F0040F14BF4CEA010CDD
:101A80002CEA010CC0F808C5D0F818C512F0080FF0
:101A900014BF4CEA010C2CEA010CC0F818C512F076
:101AA000100FD0F83C2514BF0A438A43C0F83C25E8
:101AB000D0F80C2513F0010F14BF0A438A43C0F875
:101AC0000C25D0F8102513F0020F14BF0A438A43E7
:101AD000C0F81025D0F8142513F0040F14BF0A43E2
:101AE0008A43C0F81425D0F81C2513F0080F14BF42
:101AF0000A438A43C0F81C25D0F8442513F4007F1C
:101B000014BF0A438A43C0F84425D0F8402513F493
:101B1000407F14BF0A438A43C0F84025D0F82825E7
:101B2000002B0CBF114322EA0101C0F82815BDE8C3
:101B3000F00370470E4AC0F30741D26E01238B4079
:101B40001A420C4A1ABF02EBC101496852F831101F
:101B5000020AD1F82C354FF00F0C0CFA02FC00F001
:101B60000F0023EA0C0390401843C1F82C0570477E
:101B700000E00F408C39000030B50C4605460823C4
:101B80000122FFF73BFF21462846BDE830400122F5
:101B9000FFF720BF30B50C4605460222FFF71AFFBB
:101BA00021462846BDE8304008230122FFF726BF22
:101BB00040F8212070470000044951F820000449F2
:101BC00040F0FD7040F08060086070471C3A0000F3
:101BD0000CED00E01CB500210120CDE900010B4611
:101BE000802202A1024801F005FD1CBD4C454400C5
:101BF000790B00001CB500210220CDE900010B4645
:101C0000C20102A1034801F0F5FC1CBD534F525420
:101C100000000000A50B00002DE9F003AD4D0246C9
:101C20002868AD4B1840A0F18053B3F5A02358D0DD
:101C300002F03809DFF8A482C2F38414B9F1100F5E
:101C400024D0B9F1300F04BF47F230504FF40013E5
:101C50000CD03820904304BF4FF40040C30105D09E
:101C600012F0380F1CBF0020034613D09C4F12F413
:101C7000605F4FF0000618BF00222CD057F83240AA
:101C800044457DD307EBC2025268DFE000234046A3
:101C90001524EBE7A4F10900122822D29148D5F8C7
:101CA0007CC04FF04C7350F824002CF01C0C072C17
:101CB000A8BF4CF0100CC5F87CC02E6D4FF4002C62
:101CC00016F4807FD2D1BCF1010C0AD02E6D16F42F
:101CD000807FF8D0CAE712F0380F18BFB9F1100FA3
:101CE00003D0BDE8F00300207047C2F30268DFF8BC
:101CF000F8C1002257F83290E14503D307EBC20246
:101D0000526803E0521C062AF4D33246C5F8C020BC
:101D1000D5F8B020DFF8D4C102EA0C0242F000424C
:101D2000C5F8B020DFF8C8C1A4F109024C1E5CF868
:101D300028C0A444BCFBF1FCD5F8B0101943C5F889
:101D4000B01008EBC80101EB41046A4902EB420202
:101D500001EBC40101EB82046468C5F86441D5F865
:101D600064416FF0FF0808EB0C2C44EA0C0CC5F83A
:101D700064C151F82210D5F8602102F4000200E09D
:101D80005FE01143C5F86011D5F86011D5F8602106
:101D9000C1F38921C2F30904D5F86421C2F30422F6
:101DA00002F1010CD5F8642102F01F02521CB0FBB5
:101DB000F2F04A09C2F100084443424301EB4811E2
:101DC00004EB5212484302EB9020B0FBFCF04108B8
:101DD0000846002257F832C0844503D307EBC200FF
:101DE000466802E0521C062AF4D3C5F8C060D5F854
:101DF000600110F4000F1DBFD5F8B00040F0804026
:101E0000C5F8B000D5F8600104BF40F40000C5F883
:101E100060014FF40040D5F8682112F0010F02D1A3
:101E2000401E0028F7DC002808BF002148D0D5F864
:101E3000B000184340F0010040F01040C5F8B00079
:101E40003EE0521C062AFFF419AF3246C5F8C02006
:101E5000D5F8602122F40002C5F86021D5F8B02041
:101E6000DFF894C002EA0C0242F00042C5F8B0204C
:101E7000002908BF4FF0000C0AD0B0FBF1FCBCF108
:101E8000000F18BFACF1010C0CF10101B0FBF1F136
:101E90000846002257F83240844203D307EBC200C1
:101EA000466802E0521C062AF4D3C5F8C060D5F893
:101EB000B00043EA8C22104340F00040C5F8B00067
:101EC000D5F8B00020F47000C5F8B000BDE8F0030C
:101ED0000846704700E00F400000FF700024F40047
:101EE0004C3D0000303B000040787D0100FC0FE0DD
:101EF000283B00009C3B0000FF0300EFC0F30723DA
:101F00000749C0B2194401F07043C1F3130143EA19
:101F1000411141EA800040F00070012202607047E8
:101F200000E60F40C0F307220849C0B2114401F097
:101F30007042C1F3130142EA411141EA800040F0CE
:101F400000700068002818BF0120704700E30F40B0
:101F5000C0F307220849C0B2114401F07042C1F336
:101F6000130142EA411141EA800040F0007000682C
:101F7000002818BF0120704700EA0F40816911F066
:101F8000100FFBD100687047826912F0200FFBD15F
:101F9000016070478069012121EA10107047C0F884
:101FA000C81F7047D0F818C01CF0080FFAD1D0F83D
:101FB0002CC02CF0100CC0F82CC0D0F830C02CF085
:101FC000010C2CF4407CC0F830C0D0F830C0B1EB2C
:101FD000021F34BF4CF0200C2CF0200CC0F830C095
:101FE00038BF5208C900B1FBF2F1491C49088A09FF
:101FF000426201F03F018162C36200218161C16AD6
:1020000041F01001C162016B40F2013211430163E2
:102010007047C16A41F01001C162016B40F20132A8
:1020200011430163704700001CB500210420CDE975
:1020300000010B46820102A1044801F0DBFA1CBD3D
:10204000554152545245564549564500DD18000049
:102050002DE9F041104E04461746884656F82400F4
:10206000FFF760FF002814D0A6F10C000B4D50F8CC
:102070002400686056F82400FFF740FF60234246C2
:1020800039466868FFF78EFF6868BDE8F041FFF7E2
:10209000C0BFBDE8F0810000E83700000400002068
:1020A0000FB410B503A9029800F004F810BC5DF855
:1020B00014FB00002DE9F04F0F462DED028B89B087
:1020C000064605AD0DF1040B37E1002400E0641C69
:1020D000305D252801D00028F9D12146304600F096
:1020E00043F9264430782528EED100244FF020090A
:1020F000761C16F8010B392830D018DC34282DD086
:102100000CDC31282AD004DC25287DD0302822D1CF
:1021100024E0322822D033281DD11FE035281DD0DD
:1021200036281BD0372819D0382814D116E0692852
:1021300025D008DC582868D063281BD064281ED01E
:10214000662808D127E070285FD0732877D07528DB
:1021500076D0782859D005217CA0ECE016F8010C47
:10216000302801D104B9814604EB8401490030399B
:102170004418BEE701CF009001216846DBE001CFA3
:1021800000210090002803DA40420123009000E083
:1021900000230A228EE0FF1D27F00707B7EC020B91
:1021A00051EC100BFEF7A8FA08EE100A4FF00008E9
:1021B0004446BDEEC80A10EE100A002806DA0121D6
:1021C00064A000F0D1F8B1EE488A07E010EE100AE2
:1021D000012803DA012160A000F0C6F8BCEEC80AAD
:1021E00010EE100A00EE100AB8EE400A38EE400A6F
:1021F000DFED5A0A4FF00A0C5A4620EE200ABCEED8
:10220000C00A10EE101A09E093E04EE0B0FBFCF3B8
:102210000CFB1303B0FBFCF01355641C0028F5D134
:1022200008EB040304E0641E105D303005F8010B78
:10223000002CF8D12E2005F8010B5B1C09E015E0FD
:102240002EE0B1FBFCF00CFB1010B1FBFCF11055C3
:10225000641C0029F5D1191904E0641E105D3030AA
:1022600005F8010B002CF8D105A864E020CF002070
:1022700001E008F10100804615F808000028F8D1B7
:102280004146284600F070F8444556D9A4EB0804AE
:1022900003E0012132A000F067F8641E4DD3F8E797
:1022A00001CF00210A22009003E001CF002110227B
:1022B000009000230120DDF800A001E06046641ECC
:1022C00000FB02FCD44503D8BCFBF2F88045F5D0F6
:1022D00043B1641EB9F1300F04D12D230BF8013046
:1022E0000023491CA4F1020CBCF10E0F07D2641E9E
:1022F00005D0DC460CF80190491C641EFAD11BB1D4
:102300002D230BF80130491CDFF85880DC4670B1F2
:10231000BAFBF0F3B3FBF2F402FB1433D8F800403D
:10232000B0FBF2F0E35C0CF80130491CEFE701A8C8
:1023300001E00121701E00F017F8307800287FF4CA
:10234000C4AE09B0BDEC028BBDE8F08F4552524FD0
:10235000520000002D0000003000000000401C462C
:1023600020000000D83700002DE9F0410F46054657
:102370000024094E0BE0285D0A2803D10D21706866
:10238000FFF702FE295D7068FFF7FEFD641CBC428A
:10239000F1D32046BDE8F0810400002070B5274845
:1023A000FFF7ACFD2548801CFFF7A8FD2448FFF788
:1023B000A5FD2348801CFFF7A1FD2148401DFFF724
:1023C0009DFD0120FFF7B6FB40F20140FFF7B2FB95
:1023D0004FF0402403212046FFF7DCFB41F60100CB
:1023E000FFF7A8FB41F60140FFF7A4FBC021204600
:1023F000FFF7D0FB1348FFF79DFB1348FFF79AFB4D
:10240000C0211248FFF7C6FB05211148FFF7C7FDA1
:102410004FF4E1350F4A29460020FFF719FE0E4C14
:1024200060232A460D482168FFF7BCFD2A46216833
:10243000BDE8704060230A48FFF7B4BD000800F013
:10244000001800F001180200011C020000600040AA
:1024500000C000400024F4000000002000E0004024
:10246000001001400FB4054B10B503A9044A0298AF
:1024700000F00CF910BC5DF814FB0000BD2D00004D
:10248000B800002000B52DED048BB0EE409AF0EEC0
:10249000609A83B051EC190BFEF756FA41EC180B19
:1024A00018EE100A18EE901A8DED008B002818BF58
:1024B0000120084320F00040C0F17F6000F1E040BF
:1024C000C00F14D019EE101A19EE900A8DED009B72
:1024D000002918BF0121084320F00040C0F17F60AF
:1024E00000F1E040C00F04BF012000F017F8B0EE8B
:1024F000480A03B0F0EE680ABDEC048B00BD02E0B0
:1025000008C8121F08C1002AFAD17047704700207E
:1025100001E001C1121F002AFBD170470149086088
:1025200070470000BC0000202DE9FF5FDDE90220BC
:10253000010DDDF838B0024318D044F61050A1F276
:10254000FF3141430D140F98012820D0A5EB0B005B
:10255000401C5FEA000A4FF00004474EDFF81C9170
:10256000A046504616D5CAF1000728E00F9801246E
:1025700043A2012808D0002100980F9BC0E9002148
:10258000C0E90243BDE8FF9F6FEA0B01F4E7CBF11E
:102590000000DEE7074612E0F80707D02246334680
:1025A00040464946FDF78EFF80468946224633461F
:1025B00010461946FDF786FF04460E467F10002F91
:1025C000EAD1DDE90201BAF1000F42464B4602DAD8
:1025D000FDF778FF01E0FDF7E7FF04460E46002215
:1025E000284BFEF71BFA03D84FF0FF30014607E0F7
:1025F0000022254B20463146FDF7BDFEFEF7F5F9DA
:10260000102409E0002C0ADB0A220023FEF7A6F8BA
:10261000019B30321A55641E50EA0102F2D1641C4B
:10262000019AC4F1110314440F9A012A03D0012224
:1026300008430DD10AE0084304D000204FF0110BED
:102640000F9080E7A3EB0B056D1E0DE05B4504DDED
:102650004FF0000205F1010504E003DA4FF000023B
:10266000A5F10105002AECD000980F99C0E90231CC
:10267000C0E9004586E70000000024400000F03F6C
:10268000300000000000F0430000E03F2DE9FF4F64
:1026900095B09B468946064600250FE2252877D14E
:1026A00000242746F84A0121059400E0044316F867
:1026B000013F203B01FA03F01042F7D130782A287D
:1026C00011D06FF02F033078A0F13002092A16D80C
:1026D000059A44F0020402EB820203EB420210442A
:1026E000761C0590EFE759F8042B0592002A03DACF
:1026F000504244F40054059044F00204761C3078B3
:102700002E2816D116F8010F44F004042A280DD003
:102710006FF02F023078A0F13003092B09D807EBB6
:10272000870302EB4303C718761CF3E759F8047BD1
:10273000761C30786C280FD006DC4C2817D068281F
:102740000DD06A2814D104E0742810D07A280FD153
:102750000DE044F400140AE044F4801401E044F471
:1027600040147278824202D104F58014761C761CE3
:10277000307866280BD013DC582877D009DC002885
:1027800075D04528F6D04628F4D047281AD19DE1C7
:1027900018E0632835D0642879D0652812D195E1F6
:1027A000702873D008DC6728F1D069286FD06E28B4
:1027B0000DD06F2806D1B5E073282CD0752875D0C0
:1027C000782874D05A46179990476D1C75E1C4F368
:1027D0000250022809D003280DD0D9F8001004288F
:1027E0000DD00D6009F1040967E1D9F80010EA176E
:1027F000C1E90052F6E7D9F800100D80F2E70D703C
:10280000F0E719F8041B8DF8001000208DF8010086
:10281000EA46012003E059F804AB4FF0FF306107AE
:102820004FF0000102D40DE008F101018846B942E1
:102830000FDA8045F8DB1AF808100029F4D108E017
:1028400008F1010188468142FADB1AF808100029D4
:10285000F6D105985B46A0EB080721463846179A43
:1028600000F094FA284400EB080507E04DE029E168
:102870000DE01AF8010B5A4617999047B8F1010874
:10288000F7D25B4621463846179A13E142E00A2206
:102890000092C4F302524FF0000A022A08D059F8FD
:1028A00004CB032A4FEAEC710AD00DE029E02AE0BC
:1028B00009F1070121F00702F2E802C1914609E09F
:1028C0000FFA8CFC4FEAEC71042A03D14FFA8CFC0E
:1028D0004FEAEC71002907DA0A460021DCF1000C0E
:1028E00061EB02012D2202E0220504D52B228DF896
:1028F0000420012203E0E20701D02022F7E79046FE
:1029000059E00A2102E010220DE010214FF0000AE8
:1029100000910BE010224FF0000A44F00404082755
:10292000009203E008224FF0000A0092C4F3025222
:10293000022A05D059F804CB0021032A08D009E067
:1029400009F1070121F00702F2E802C1914605E012
:102950001FFA8CFC042A01D10CF0FF0C4FF0000888
:10296000220728D5702806D0009B83F0100353EA75
:102970000A0305D00EE040228DF80420012208E071
:102980005CEA010206D030228DF804208DF80500A3
:1029900002229046009B83F0080353EA0A030AD1FF
:1029A0005CEA010201D1620705D530228DF80420CE
:1029B0004FF001087F1E582804D034A003900EA8C1
:1029C00002900DE036A0F9E753466046009AFDF705
:1029D000C5FE84460398825C0298401E02900270F5
:1029E0005CEA0100F0D1029806A9081A00F1200A59
:1029F000600702D524F4803400E00127574502DD4A
:102A0000A7EB0A0000E0002000EB0A010090059807
:102A10004144401A0590E00306D45B462146179ACC
:102A2000059800F0B3F90544002706E001A85A46CE
:102A3000C05D179990476D1C7F1C4745F6DBE0038E
:102A40000CD55B462146179A059800F09FF905447E
:102A500004E030205A46179990476D1C0099481E93
:102A600000900029F5DC08E0029802995A460078A7
:102A7000491C0291179990476D1CBAF10001AAF107
:102A8000010AF1DC65E10000092801003031323330
:102A9000343536373839616263646566000000009A
:102AA0003031323334353637383941424344454684
:102AB0000000000000F058F90544761C307800282A
:102AC0007FF4ECAD19B02846BDE8F08F620700D462
:102AD000062709F1070222F0070CFCE80223E14671
:102AE00003F000485FEA080C02D00FF2702C0DE0F2
:102AF0005FEA045C02D50FF2682C07E05FEAC47C51
:102B000002D00FF2602C01E0AFF2700C4FF0FF38F2
:102B100023F00043CDF850C065280CD006DC4528D2
:102B200009D046281DD047283DD13DE0662818D061
:102B300067287ED138E00021112F01DB112000E051
:102B4000781CCDE9000106A90EA8FFF7EDFCDDE930
:102B50000F010E9A03910021009207F1010A0491DE
:102B60004DE04FF000400097CDE9011006A90EA8F6
:102B7000FFF7DAFCDDE90F0203920E9B11990022A8
:102B8000DDF80CA00093049211B9791C00EB010A46
:102B9000B7EB0A0004D4C0F1FF3007F1010A04903A
:102BA000AAEB0700019044E0012F00DA0127002181
:102BB000112F01DD112000E03846CDE9000106A902
:102BC0000EA8FFF7B1FCDDE90F010E9A0391002179
:102BD00004910092BA4621070CD40399514500DABA
:102BE0008A46BAF1010F05DD009AAAF10101515C94
:102BF000302908D0B84202DA10F1040F06DA0121B8
:102C0000CDE9011015E0AAF10101E9E7002805DC92
:102C1000049901440491AAEB000102E0411C5145D2
:102C200000DD8A460499401A401C01904FF0004094
:102C30000290200704D40198504501DBCDF80480B0
:102C400000208DF84F0002980DF14F07B0F1004FB2
:102C500025D02B200E9002984FF0020800280CDAA5
:102C6000404202902D200E9007E00A210298FDF7C5
:102C70005FFD3031029007F8011DB8F10001A8F1A5
:102C80000108F2DC02980028EFD1791E0E98087036
:102C9000307800F0200040F0450007F8020D12A83F
:102CA000C01B00F107081498007800B1012000EB68
:102CB0000A01019801EBE07105984144401A401E59
:102CC0000590E00306D45B462146179A059800F06C
:102CD0005DF805441498007818B15A461799904742
:102CE0006D1CE00324D55B462146179A059800F039
:102CF0004DF805441CE00498002807DBDDE90301DA
:102D0000884203DD0098405C179901E01799302054
:102D10005A469047049805F10105401C049001981B
:102D2000401E019004D12E205A46179990476D1CE1
:102D3000BAF10001AAF1010ADDDC05E017F8010B88
:102D40005A46179990476D1CB8F10001A8F1010887
:102D5000F4DC5B462146179A0598ABE62D0000008F
:102D60002B000000200000002DE9F0410446002562
:102D70001E461746880404D405E039462020B04793
:102D80006D1C641EF9D52846BDE8F0812DE9F0419F
:102D9000044600251E469046C80301D5302700E0B2
:102DA0002027880404D505E041463846B0476D1C0D
:102DB000641EF9D52846BDE8F081000010B5044630
:102DC000C1B20248FFF7E0F8204610BD00100140F4
:102DD00070B50420FEF7F0FE19491A48FEF71CFFF3
:102DE00019491A4D08602846FFF788F8EC1F20465D
:102DF000FFF784F82846FFF7ABF80028FAD0204602
:102E0000FFF7A6F80028FAD001211148FEF7B4FE1A
:102E1000104C01212046FEF7AFFE10212046FEF7A0
:102E2000ABFEFFF7BBFAFEF7D5FEFEF7BDFDFFF7E1
:102E3000FBF8FEF7DFFE00F0EBFA002070BD0000AB
:102E4000000E2707800600F1000000200C0800F0AB
:102E500000400640005002402DE9F041184E0F4658
:102E60000446F5683068001D00F0FAF938B930689A
:102E700090F82C1001208840316981433161601C39
:102E800007D137B13168BDE8F0410E48091D00F0A7
:102E900020BA30682C44AC424460316805D2B06B33
:102EA000BDE8F041091D00F0FCB9706B091D00F090
:102EB000F8F9B06A844200D2B462BDE8F081000043
:102EC0000C0000209C0100202DE9F041054600F097
:102ED0000DFA2E4EB068401CB06030682C4F10B117
:102EE000706940B32DE03560B068012829D1002415
:102EF00004EB840007EB800000F0C5F9641C072C8C
:102F0000F6D323488C3000F0BEF92148A03000F001
:102F1000BAF91F48B43000F0B6F91D48C83000F0C7
:102F2000B2F91B48DC3000F0AEF919488C30706300
:102F30001430B06305E03068E96AC06A884200D89E
:102F40003560706A0121401C70622864E86A326949
:102F500081401143316100EB800007EB8000291DA7
:102F600000F0B7F900F0E2F9706900280CD0306881
:102F7000E96AC06A884207D206494FF0805008606B
:102F8000BFF34F8FBFF36F8FBDE8F0810C000020BF
:102F9000C000002004ED00E010B50446006B00F016
:102FA000D9F92046BDE8104000F0D4B90F4847F2E7
:102FB0003051420705D0C01D0C4A20F00700821A8C
:102FC000891A0B4A00230144C2E900030839103A68
:102FD00021F0070111604B600B600B1AC0E9001370
:102FE00093604FF000405360D0607047B001002004
:102FF000580000200C4E0D4D11E000F077F9F068FC
:10300000C468201D00F02CF9A868401EA8606868FC
:10301000401E686000F08AF92046FFF7BDFF68682F
:103020000028FCD0E9E70000880100200C00002007
:103030002DE9F0470E46DDE90984174682469100E6
:103040009946089DA522206BFDF783F96FF00301D7
:10305000206B01EB8701084420F00707780707D0B1
:10306000C02080F31188BFF34F8FBFF36F8FFEE74F
:103070002218315C82F83410315C11B1401C0C28EC
:10308000F6D3002684F83F60072D00D30625E562BD
:10309000C4E91256201D00F001F904F1180000F0F7
:1030A000FDF82461C5F107006462A061266584F81B
:1030B00054604A465146384600F0BEF82060B8F1E8
:1030C000000F01D0C8F80040BDE8F08730B51149C5
:1030D00000E011460A688242FBD34B685C188442C8
:1030E00003D1406818444860084643681C1894425D
:1030F00009D1084C103C2468A24209D052681A44F5
:1031000042600A6812680260814200D0086030BDE7
:103110000460F9E7580000200648416B096829B1AE
:10312000416BC968C9684968816270474FF0FF31D7
:10313000FAE700000C00002008484068401C4FF0EF
:10314000C00080F3118804D0BFF34F8FBFF36F8F9F
:10315000FEE7BFF34F8FBFF36F8FFEE760000020E5
:103160002DE9F0410546002600F086F9314F386818
:1031700008B9FFF71BFFF86805424BD1C5B3083506
:1031800068070ED005F00700C0F108000544680785
:1031900007D0C02080F31188BFF34F8FBFF36F8F2C
:1031A000FEE72DB37868854234D8224910310846AD
:1031B000046801E0214604466068A84202D2206803
:1031C0000028F7D13868844224D00E68206808604F
:1031D00060680836411B10290FD96019420708D0D2
:1031E000C02080F31188BFF34F8FBFF36F8FFEE7CE
:1031F00010E041606560FFF769FF61687868401A18
:103200007860BA68904200D2B860F8680143002044
:10321000C4E9000100F07EFA700707D0C02080F3F7
:103220001188BFF34F8FBFF36F8FFEE73046BDE8C5
:10323000F08100004800002010B5031F4FF080749B
:103240001C601B1F1960191F044B0B6014390A60A6
:10325000091F6FF0020244380A6010BD39310000C6
:10326000D0E9013201699A60D0E901235A604A68C5
:10327000824201D182684A60002202610868401ED1
:1032800008600868704700F108014FF0FF32C0E99C
:103290000112C160016100210160704700210161DC
:1032A000704730B50C68621C02D000F1080202E0E1
:1032B000026904E01A4653681D68A542FAD95368AA
:1032C0004B6099608A60516008610168491C016027
:1032D00030BD42684A6093688B6093685960916022
:1032E00008610168491C016070470000C02080F33C
:1032F0001188BFF34F8FBFF36F8F0A494868401C96
:10330000486001280CD10848006810F0FF0F07D072
:10331000C02080F31188BFF34F8FBFF36F8FFEE79C
:10332000704700006000002004ED00E00849486894
:1033300028B1401E486001D180F311887047C02039
:1033400080F31188BFF34F8FBFF36F8FFEE700004C
:103350006000002070B5002827D0144DA0F10804AB
:103360006068E968084207D1C02080F31188BFF384
:103370004F8FBFF36F8FFEE722683AB1C02080F312
:103380001188BFF34F8FBFF36F8FFEE788436060F4
:1033900000F072F860686968084468602046FFF7CA
:1033A00095FEBDE8704000F0B5B970BD4800002042
:1033B0004FF0E020024941610721016170470000A0
:1033C000BFD4010010B5020014D00F48006B38B113
:1033D000C02080F31188BFF34F8FBFF36F8FFEE7DC
:1033E00000F04AF800211046FFF736FD00F092F990
:1033F000002807D105494FF080500860BFF34F8F78
:10340000BFF36F8F10BD00000C00002004ED00E042
:103410001CB515480024CDE900402346802213A1A5
:10342000144800F0E7F8012809D0401C1AD1C02048
:1034300080F31188BFF34F8FBFF36F8FFEE7C0207B
:1034400080F31188BFF34F8FBFF36F8F06484FF0A3
:10345000FF312C38816201214161C460BDE81C400C
:1034600000F040B81CBD00003800002049444C4525
:1034700000000000F52F00000248016B491C0163A9
:10348000704700000C000020144A106B10B101209E
:10349000D06170470020D06110691149B0FA80F006
:1034A000C0F11F0000EB800051F820306BB101EB40
:1034B000800000F10803416849684160994201D1E8
:1034C00049684160C86810607047C02080F3118867
:1034D000BFF34F8FBFF36F8FFEE700000C0000209B
:1034E000C00000201CB533480168334A914207D11F
:1034F000C02080F31188BFF34F8FBFF36F8FFEE7BB
:1035000000682D49491E884207D1C02080F31188E8
:10351000BFF34F8FBFF36F8FFEE728490878019004
:10352000FF20087008788DF800009DF800009DF8D5
:10353000002000F0E000904207D0C02080F3118806
:10354000BFF34F8FBFF36F8FFEE79DF800001C4A5B
:1035500000F0C00010700720906007E09068401EE7
:1035600090609DF8000040008DF800009DF800007C
:103570000006F3D4107A000200F4E0609060019835
:1035800008700C482030016841F460010160016856
:1035900041F060410160FFF70BFF00205060FCF735
:1035A0009DFE0848016841F040410160FCF786FE3D
:1035B00000201CBD00ED00E071C20F4100E400E0FE
:1035C0006000002034EF00E010B5C02080F31188C7
:1035D000BFF34F8FBFF36F8F00F038F818B1044975
:1035E0004FF080500860002080F3118810BD00006B
:1035F00004ED00E02DE9FF5F8346DDE90E87994683
:1036000016468A469000FFF7ABFD05001AD05820F9
:10361000FFF7A6FD040012D025630021CDE9024189
:10362000CDE900874B46324651465846FFF700FD2C
:103630002046FFF749FC012004B0BDE8F09F284672
:10364000FFF788FE4FF0FF30F6E700002DE9F0416C
:103650002E4F0026386B40B1B869401CB861F8693C
:1036600000B101263046BDE8F081FD686D1CFD60AB
:1036700013D1786B006838B1C02080F31188BFF394
:103680004F8FBFF36F8FFEE7786BB96B7963B863C9
:10369000386A401C3862FFF73FFDB86ADFF8708077
:1036A000854209D3786B006880B1786BC068C468C4
:1036B000606885420DD2B8623868C06A00EB80014C
:1036C00058F821000128CAD90126C8E74FF0FF3079
:1036D000F1E7201DFFF7C4FDA06A18B104F118003E
:1036E000FFF7BEFDE06A01213A698140114339616B
:1036F00000EB800108EB8100211DFFF7EAFDE06A85
:103700003968C96A8842CDD30126CBE70C00002076
:10371000C00000202DE9F0472C4D00242746286BDF
:1037200038B1FFF7E3FD286B401E2863286B40B1DA
:1037300046E0C02080F31188BFF34F8FBFF36F8F37
:10374000FEE7A86822490126D0B3A1F1B409884652
:10375000D8F80010E9B1D8F80C00C46804F11800DA
:10376000FFF77EFD201DFFF77BFDE06A2A6906FA60
:1037700000F11143296100EB800109EB8100211D5B
:10378000FFF7A7FDE06A2968C96A8842E0D3EE61C5
:10379000DEE70CB1FFF7C0FCAC693CB1FFF756FFA8
:1037A00000B1EE61641EF9D10020A861E86938B16A
:1037B0000849012738070860BFF34F8FBFF36F8FA9
:1037C000FFF7B4FD3846BDE8F08700000C0000208C
:1037D0007401002004ED00E07C3D000000C00040CA
:1037E00000D0004000E00040001800F0011800F098
:1037F000021800F00040004010000000008005406A
:103800001000000000500040110000000090054032
:1038100011000000006000401200000000A0054000
:1038200012000000007000401300000000B00540CE
:1038300013000000004002401400000000C00540DA
:1038400014000000005002402E00000000D005408F
:103850002E000000006002402F00000000E0054044
:103860002F000000007002403000000000F0054012
:103870003000000000D00340460000000000064079
:1038800046000000001006404700000000200640EF
:1038900048000000003006407F0000000040064065
:1038A00080000000005006408400000000600640D8
:1038B0008C00000000400040100000000080054027
:1038C0001000000000500040110000000090054072
:1038D00011000000006000401200000000A0054040
:1038E00012000000007000401300000000B005400E
:1038F00013000000004002401400000000C005401A
:1039000014000000005002402E00000000D00540CE
:103910002E000000006002402F00000000E0054083
:103920002F000000007002403000000000F0054051
:103930003000000000D003404300000000000640BB
:103940004300000000100640440000000020064034
:1039500045000000003006405800000000400640CE
:1039600059000000005006405C0000000060064066
:1039700064000000007006406C00000000800640FB
:103980006D000000009006407F00000000400040F5
:10399000008005400050004000900540006000405D
:1039A00000A005400070004000B00540004002400B
:1039B00000C005400050024000D0054000600240B9
:1039C00000E005400070024000F0054000D00340D8
:1039D000000006400010064000100640002006408F
:1039E00000200640003006400030064000400640FF
:1039F000004006400050064000500640006006406F
:103A000000600640007006400070064000800640DE
:103A1000008006400090064000900640000700002D
:103A20000006000000050000000400000003000084
:103A30000002000000010000000000000000000083
:103A400018ED00E01CED00E020ED00E000E400E0F7
:103A500004E400E008E400E00CE400E010E400E02E
:103A600014E400E018E400E01CE400E020E400E0DE
:103A700024E400E028E400E02CE400E030E400E08E
:103A800034E400E038E400E03CE400E040E400E03E
:103A900044E400E048E400E04CE400E050E400E0EE
:103AA00054E400E058E400E05CE400E060E400E09E
:103AB00064E400E068E400E06CE400E070E400E04E
:103AC00074E400E078E400E07CE400E080E400E0FE
:103AD00084E400E088E400E000E100E004E100E0CC
:103AE00008E100E00CE100E010E100E080E100E02E
:103AF00084E100E088E100E08CE100E090E100E09A
:103B000000E200E004E200E008E200E00CE200E095
:103B100010E200E080E200E084E200E088E200E001
:103B20008CE200E090E200E000688909001C4E0E83
:103B300040420F0000201C0080841E0000802500F1
:103B4000999E36000040380000093D0000803E008C
:103B500000004B00404B4C0000204E00808D5B006D
:103B600000C05D000080700000127A0000007D003F
:103B700080969800001BB7000080BB00C0E8CE0014
:103B8000647ADA000024F4000000FA0080A8120130
:103B9000002D310100366E0140787D0140000000AB
:103BA00000000000000100003E00080000000000CE
:103BB00000010000A0000000020000000001000061
:103BC0003454010000000000000100002B700600CA
:103BD00000000000000100002800000000000000BC
:103BE00000010000270001000000000000010000AB
:103BF0002000000000000000000100005000000054
:103C000002000000000100001AAC000000000000EB
:103C100000010000179409000000000000010000EE
:103C200016980500000000000001000014000000CC
:103C300000000000000100001380080000000000E8
:103C400000010000A00000000800000000010000CA
:103C5000100000000000000000010000280000002B
:103C6000020000000001000040000000040000000D
:103C700000010000600000000000000000010000E2
:103C80005D000C000000000000010000500000007A
:103C900000000000000100004E00020000000000D3
:103CA0000001000041AC0100000000000001000024
:103CB0003C00000000000000000100003A80090004
:103CC00000000000000100003000000000000000C3
:103CD00000010000280000000000000000010000BA
:103CE0002700010000000000000100002360060022
:103CF000000000000001000021600800000000003A
:103D0000000100001E000000000000000001000093
:103D10001DC0040000000000000100005000000071
:103D20000200000000010000180000000000000078
:103D3000000100001400000000000000000100006D
:103D40006000000004000000000100000024F400F6
:103D500030003000005A6202910091000087930306
:103D6000D200D20000B4C4041301130100E1F50530
:103D700054015401000E270795019501303132336B
:103D80003435363738396162636465660000000097
:103D9000B03D000000000020C0000000FE24000034
:103DA000703E0000C000002060A800000E2500004A
:103DB0000000000000000000000000000000000003
:103DC00000000000000000000000000000000000F3
:103DD00000000000000000000000000000000000E3
:103DE00000000000000000000000000000000000D3
:103DF00000000000000000000000000000000000C3
:103E000000000000000000000000000000000000B2
:103E100000000000AAAAAAAA0000000000000000FA
:103E20000000000000000000000000000000000092
:103E30000000000000000000000000000000000082
:103E40000000000000000000000000000000000072
:103E50000000000000000000000000000000000062
:103E60000000000000000000000000000000000052
:04000005000002896C
:00000001FF
